N0000004        00813MCLNR ACID MURIATIC 4L         EA   00000127500000094600000088400000088400000088430545        001193377615            EA   M0000001  0XY00113120000004000587870108660000400000110500000110530530545050NLAWRASONS INC          PAINT & SUNDRIES                                            CLEANERS & WASHES                                           CAEA   0010002806100000   CLNR ACID MURIATIC 4L                                                                                                                                                                                                                                                                                                                                                                                                                                                                                                                                                                                                                                                                                                                                                                                                                                                                                                                                                                                                                                                                                                                                  
N0000012        00813MCLNR ACID MURIATIC 900ML BTL  EA   00000080900000045800000042800000042800000042830545        001193377617            EA   M0000001  0XY00113200000012000587870109100001200000070200000070230530545050ALAWRASONS INC          PAINT & SUNDRIES                                            CLEANERS & WASHES                                           CAEA   0030002806100000   CLNR ACID MURIATIC 900ML BTL                                                                                                                                                                                                                                                                                                                                                                                                                                                                                                                                                                                                                                                                                                                                                                                                                                                                                                                                                                                                                                                                                                                           
Y0000001        00813MTABLET HMDFR SCL CTRLR 8G     PK   00000070900000040100000037500000037500000037545425        001193377614            PK   M0000001  0YY00113380000012000587870107980001200000061500000061545445425090FLAWRASONS INC          HEATING & COOLING                                           AIR FILTRATION                                              CAPK   0030003307300000   TABLET HMDFR SCL CTRLR 8G                                                                                                                                                                                                                                                                                                                                                                                                                                                                                                                                                                                                                                                                                                                                                                                                                                                                                                                                                                                                                                                                                                                              
N0000012        00813MFRESHENER PINE HMDFR 500ML    EA   00000071500000040300000037700000037700000037745425        001193377612            EA   M0000001  0XY00113460000012000623837761250001200000061800000061845445425090ELAWRASONS INC          HEATING & COOLING                                           AIR FILTRATION                                              CAEA   0030003402209090   FRESHENER PINE HMDFR 500ML                                                                                                                                                                                                                                                                                                                                                                                                                                                                                                                                                                                                                                                                                                                                                                                                                                                                                                                                                                                                                                                                                                                             
N0000012        00813MCLNR DE-SCALER HMDFR 500ML    EA   00000071900000040800000038100000038100000038145425        001193377613            EA   M0000001  0XY00113530000012000623837761320001200000062500000062545445425090FLAWRASONS INC          HEATING & COOLING                                           AIR FILTRATION                                              CAEA   0030003402209090   CLNR DE-SCALER HMDFR 500ML                                                                                                                                                                                                                                                                                                                                                                                                                                                                                                                                                                                                                                                                                                                                                                                                                                                                                                                                                                                                                                                                                                                             
N0000012        00813MREMV IRON 567G UNSCENTED      EA   00000108900000061700000057700000057700000057750110        001193377602            EA   M0000001  0XY00113610000012000623837760260001200000094600000094650150110035CLAWRASONS INC          HOUSEWARES                                                  CHEMICALS & CLEANERS                                        CAEA   0030003402900000   REMV IRON 567G UNSCENTED                                                                                                                                                                                                                                                                                                                                                                                                                                                                                                                                                                                                                                                                                                                                                                                                                                                                                                                                                                                                                                                                                                                               
Y0000001        00813MRFL BG MOISTURE MGNT 1KG 1BG  EA   00000137900000078100000073000000073000000073045425        001193377621            EA   M0000001  0YY00113790000006000587870103780000600000119700000119745445425100CLAWRASONS INC          HEATING & COOLING                                           AIR FILTRATION                                              CAEA   0030002827200010   RFL BG MOISTURE MGNT 1KG 1BG                                                                                                                                                                                                                                                                                                                                                                                                                                                                                                                                                                                                                                                                                                                                                                                                                                                                                                                                                                                                                                                                                                                           
Y0000001        008G4PFILE SHOE HANG 11-1/2X5X52IN  EA   00000191500000108600000101500000101500000101525340        00178676636-1229-PINK   EA   M0000001  0YY00113870000006000388610616250000600000166400000166425325340190FWHITMOR                HARDWARE                                                    SHELVING & CLOSET                                           CNEA   0030003924900000   FILE SHOE HANG 11-1/2X5X52IN                                                                                                                                                                                                                                                                                                                                                                                                                                                                                                                                                                                                                                                                                                                                                                                                                                                                                                                                                                                                                                                                                                                           
Y0000001        008G4PBG STOR 28X18X13-1/2IN CLR    EA   00000118500000067100000062700000062700000062750610        00178676044-137         EA   M0000001  0YY00113950000006000388610216670000600000102800000102850650610060FWHITMOR                HOUSEWARES                                                  STORAGE AND ORGANIZERS                                      CNEA   0030003924900000   BG STOR 28X18X13-1/2IN CLR                                                                                                                                                                                                                                                                                                                                                                                                                                                                                                                                                                                                                                                                                                                                                                                                                                                                                                                                                                                                                                                                                                                             
Y0000001        008G4PFILE 10X52X10-1/2IN CLR       EA   00000199500000112900000105500000105500000105525340        00178676044-285         EA   M0000001  0YY00114030000006000388610216980000600000173000000173025325340190FWHITMOR                HARDWARE                                                    SHELVING & CLOSET                                           CNEA   0030003924900000   FILE 10X52X10-1/2IN CLR                                                                                                                                                                                                                                                                                                                                                                                                                                                                                                                                                                                                                                                                                                                                                                                                                                                                                                                                                                                                                                                                                                                                
Y0000001        008G4PFILE SHOE HANG 12X54IN CLR    EA   00000125900000071300000066600000066600000066625340        00178676044-12          EA   M0000001  0YY00114110000006000388610215440000600000109200000109225325340190FWHITMOR                HARDWARE                                                    SHELVING & CLOSET                                           CNEA   0030003924900000   FILE SHOE HANG 12X54IN CLR                                                                                                                                                                                                                                                                                                                                                                                                                                                                                                                                                                                                                                                                                                                                                                                                                                                                                                                                                                                                                                                                                                                             
Y0000001        008G4PFILE HANG HNDBG 12X48IN CLR   EA   00000101900000057700000053900000053900000053925340        00178676044-14          EA   M0000001  0YY00114290000006000388610628130000600000088400000088425325340190FWHITMOR                HARDWARE                                                    SHELVING & CLOSET                                           CNEA   0030003924900000   FILE HANG HNDBG 12X48IN CLR                                                                                                                                                                                                                                                                                                                                                                                                                                                                                                                                                                                                                                                                                                                                                                                                                                                                                                                                                                                                                                                                                                                            
Y0000001        008G4PFILE HANG JEWELRY 48-POCKET   EA   00000152500000086600000080900000080900000080925340        00178676044-2353        EA   M0000001  0YY00114370000006000388610628370000600000132600000132625325340190FWHITMOR                HARDWARE                                                    SHELVING & CLOSET                                           CNEA   0030003924900000   FILE HANG JEWELRY 48-POCKET                                                                                                                                                                                                                                                                                                                                                                                                                                                                                                                                                                                                                                                                                                                                                                                                                                                                                                                                                                                                                                                                                                                            
Y0000001        008G4PFILE HANG 56-1/2X11-3/4X3/8IN EA   00000185500000105300000098400000098400000098425340        00178676044-4259        EA   M0000001  0YY00114450000006000388611012080000600000161300000161325325340190FWHITMOR                HARDWARE                                                    SHELVING & CLOSET                                           CNEA   0030003924900000   FILE HANG 56-1/2X11-3/4X3/8IN                                                                                                                                                                                                                                                                                                                                                                                                                                                                                                                                                                                                                                                                                                                                                                                                                                                                                                                                                                                                                                                                                                                          
Y0000001        008G4PFILE HANG BOOT 12X58IN CLR    EA   00000142500000080700000075400000075400000075425340        00178676044-4407        EA   M0000001  0YY00114520000006000388611016970000600000123600000123625325340190FWHITMOR                HARDWARE                                                    SHELVING & CLOSET                                           CNEA   0030003924900000   FILE HANG BOOT 12X58IN CLR                                                                                                                                                                                                                                                                                                                                                                                                                                                                                                                                                                                                                                                                                                                                                                                                                                                                                                                                                                                                                                                                                                                             
Y0000001        008G4PORGNZR CLOTHES SUIT BG CLR    EA   00000067500000038200000035700000035700000035750610        00178675003-21          EA   M0000001  0YY00114600000012000388610000440001200000058500000058550650610070FWHITMOR                HOUSEWARES                                                  STORAGE AND ORGANIZERS                                      CNEA   0030003924900000   ORGNZR CLOTHES SUIT BG CLR                                                                                                                                                                                                                                                                                                                                                                                                                                                                                                                                                                                                                                                                                                                                                                                                                                                                                                                                                                                                                                                                                                                             
Y0000001        008G4PORGNZR CLOTHES DRESS BG CLR   EA   00000067500000038200000035700000035700000035750610        00178675003-22          EA   M0000001  0YY00115020000012000388610000510001200000058500000058550650610070FWHITMOR                HOUSEWARES                                                  STORAGE AND ORGANIZERS                                      CNEA   0030003924900000   ORGNZR CLOTHES DRESS BG CLR                                                                                                                                                                                                                                                                                                                                                                                                                                                                                                                                                                                                                                                                                                                                                                                                                                                                                                                                                                                                                                                                                                                            
Y0000001        008G4PBAG STORAGE LARGE CLEAR WTRTGTEA   00000089900000050900000047600000047600000047625340        00178676246-799-L       EA   M0000001  0YY00115100000012000388610330040001200000078000000078025325340190FWHITMOR                HARDWARE                                                    SHELVING & CLOSET                                           CNEA   0030003924900099   BAG STORAGE LARGE CLEAR WTRTGT                                                                                                                                                                                                                                                                                                                                                                                                                                                                                                                                                                                                                                                                                                                                                                                                                                                                                                                                                                                                                                                                                                                         
Y0000001        008G4PFILE 11-1/2X12X42IN PNK       EA   00000191500000108600000101500000101500000101525340        00178676636-1234-PINK   EA   M0000001  0YY00115280000006000388610616320000600000166400000166425325340190FWHITMOR                HARDWARE                                                    SHELVING & CLOSET                                           CNEA   0030003924900000   FILE 11-1/2X12X42IN PNK                                                                                                                                                                                                                                                                                                                                                                                                                                                                                                                                                                                                                                                                                                                                                                                                                                                                                                                                                                                                                                                                                                                                
Y0000001        008G4PBG VAC 3X6X13.2IN CLR         EA   00000216900000123100000115000000115000000115050610        00178676782-3967-CB     EA   M0000001  0YY00115360000004000388610925510000400000188500000188550650610070EWHITMOR                HOUSEWARES                                                  STORAGE AND ORGANIZERS                                      CNEA   0030003924900099   BG VAC 3X6X13.2IN CLR                                                                                                                                                                                                                                                                                                                                                                                                                                                                                                                                                                                                                                                                                                                                                                                                                                                                                                                                                                                                                                                                                                                                  
Y0000001        008G4PORGNZR CLOTHES 4X10.5X30.2IN  EA   00000762900000432800000404500000404500000404525340        00178676779-4322        EA   M0000001  0YY00115440000002000388611016350000200000663100000663125325340190FWHITMOR                HARDWARE                                                    SHELVING & CLOSET                                           CNEA   0030003924900000   ORGNZR CLOTHES 4X10.5X30.2IN                                                                                                                                                                                                                                                                                                                                                                                                                                                                                                                                                                                                                                                                                                                                                                                                                                                                                                                                                                                                                                                                                                                           
Y0000001        008G4PSHLF CLST 7.4X10.6X30.1IN     EA   00001193500000677100000632800000632800000632825340        00178676779-4466        EA   M0000001  0YY00115510000002000388611035610000200001037400001037425325340190FWHITMOR                HARDWARE                                                    SHELVING & CLOSET                                           CNEA   0030003924900000   SHLF CLST 7.4X10.6X30.1IN                                                                                                                                                                                                                                                                                                                                                                                                                                                                                                                                                                                                                                                                                                                                                                                                                                                                                                                                                                                                                                                                                                                              
Y0000001        008G4PRACK CLST 45-1/4X19-1/4X68IN  EA   00001102500000625600000584700000584700000584725340        00178676779-3044        EA   M0000001  0YY00115690000002000388610790400000200000958500000958525325340125CWHITMOR                HARDWARE                                                    SHELVING & CLOSET                                           CNEA   0030003924900000   RACK CLST 45-1/4X19-1/4X68IN                                                                                                                                                                                                                                                                                                                                                                                                                                                                                                                                                                                                                                                                                                                                                                                                                                                                                                                                                                                                                                                                                                                           
Y0000001        008G4PCLST CLOTHES 19-3/8X36X64IN   EA   00000482900000273900000256000000256000000256025340        00178676822-150-B       EA   M0000001  0YY00115770000003000388610834430000300000419700000419725325340190FWHITMOR                HARDWARE                                                    SHELVING & CLOSET                                           CNEA   0030003924900000   CLST CLOTHES 19-3/8X36X64IN                                                                                                                                                                                                                                                                                                                                                                                                                                                                                                                                                                                                                                                                                                                                                                                                                                                                                                                                                                                                                                                                                                                            
Y0000001        008G4PCLST CLOTHES 19-1/2X60X64IN   EA   00000728500000413400000386400000386400000386425340        00178676822-167-B       EA   M0000001  0YY00115850000003000388610834500000300000633400000633425325340190FWHITMOR                HARDWARE                                                    SHELVING & CLOSET                                           CNEA   0030003924900000   CLST CLOTHES 19-1/2X60X64IN                                                                                                                                                                                                                                                                                                                                                                                                                                                                                                                                                                                                                                                                                                                                                                                                                                                                                                                                                                                                                                                                                                                            
Y0000001        008G4PORGNZR CLOTHES 36X18X70-1/4IN EA   00001138500000730700000682900000682900000682940105        00178676058-90          EA   M0000001  0YY00115930000002000388610142320000200000989700000989740140105060FWHITMOR                PLUMBING                                                    BATHROOM HARDWARE                                           CNEA   0020003924900000   ORGNZR CLOTHES 36X18X70-1/4IN                                                                                                                                                                                                                                                                                                                                                                                                                                                                                                                                                                                                                                                                                                                                                                                                                                                                                                                                                                                                                                                                                                                          
Y0000001        008G4PRACK GARMENT 68X34-1/2X22IN   EA   00000661900000375600000351000000351000000351040105        00178676021-368         EA   M0000001  0YY00116010000002000388610267920000200000575400000575440140105060FWHITMOR                PLUMBING                                                    BATHROOM HARDWARE                                           CNEA   0030003924900000   RACK GARMENT 68X34-1/2X22IN                                                                                                                                                                                                                                                                                                                                                                                                                                                                                                                                                                                                                                                                                                                                                                                                                                                                                                                                                                                                                                                                                                                            
Y0000001        008G4PORGNZR CLOTHES 37X60-7/8IN WHTEA   00000262900000149200000139400000139400000139425340        00178676023-204         EA   M0000001  0YY00116270000003000388610241870000300000228500000228525325340190FWHITMOR                HARDWARE                                                    SHELVING & CLOSET                                           CNEA   0030003924900000   ORGNZR CLOTHES 37X60-7/8IN WHT                                                                                                                                                                                                                                                                                                                                                                                                                                                                                                                                                                                                                                                                                                                                                                                                                                                                                                                                                                                                                                                                                                                         
Y0000001        008G4PFILE SHOE HANG 18X64IN PNK    EA   00000191500000108600000101500000101500000101525340        00178676636-1253-PINK   EA   M0000001  0YY00116350000006000388610616490000600000166400000166425325340190FWHITMOR                HARDWARE                                                    SHELVING & CLOSET                                           CNEA   0030003924900000   FILE SHOE HANG 18X64IN PNK                                                                                                                                                                                                                                                                                                                                                                                                                                                                                                                                                                                                                                                                                                                                                                                                                                                                                                                                                                                                                                                                                                                             
Y0000001        008G4PRACK BOOT 10-3/16X22-3/16IN   EA   00000276900000157000000146700000146700000146725340        00178676196-4342        EA   M0000001  0YY00116430000004000388611026180000400000240500000240525325340190FWHITMOR                HARDWARE                                                    SHELVING & CLOSET                                           CNEA   0030003924900000   RACK BOOT 10-3/16X22-3/16IN                                                                                                                                                                                                                                                                                                                                                                                                                                                                                                                                                                                                                                                                                                                                                                                                                                                                                                                                                                                                                                                                                                                            
Y0000001        008G4PRACK SHOE 25X14X9IN CHRM      EA   00000305500000173100000161800000161800000161825340        00178676060-4522        EA   M0000001  0YY00116500000004000388611000030000400000265200000265225325340190FWHITMOR                HARDWARE                                                    SHELVING & CLOSET                                           CNEA   0030003924900000   RACK SHOE 25X14X9IN CHRM                                                                                                                                                                                                                                                                                                                                                                                                                                                                                                                                                                                                                                                                                                                                                                                                                                                                                                                                                                                                                                                                                                                               
Y0000001        008G4PRACK CLST 12X30X16 5/8IN CHRM EA   00000487500000276600000258500000258500000258525340        00178676175-861         EA   M0000001  0YY00116760000004000388610297240000400000423800000423825325340190FWHITMOR                HARDWARE                                                    SHELVING & CLOSET                                           CNEA   0030003924900000   RACK CLST 12X30X16 5/8IN CHRM                                                                                                                                                                                                                                                                                                                                                                                                                                                                                                                                                                                                                                                                                                                                                                                                                                                                                                                                                                                                                                                                                                                          
Y0000001        008G4PRACK SHOE 3-TIER FX LTHR      EA   00000480500000272600000254800000254800000254825340        00178676579-1975        EA   M0000001  0YY00116840000004000388610596840000400000417700000417725325340190FWHITMOR                HARDWARE                                                    SHELVING & CLOSET                                           CNEA   0030003924900000   RACK SHOE 3-TIER FX LTHR                                                                                                                                                                                                                                                                                                                                                                                                                                                                                                                                                                                                                                                                                                                                                                                                                                                                                                                                                                                                                                                                                                                               
Y0000001        008G4PRACK SHOE 7X25X18IN NATL      EA   00000382500000217100000202900000202900000202925340        00178676026-2516        EA   M0000001  0YY00116920000003000388610855390000300000332600000332625325340190FWHITMOR                HARDWARE                                                    SHELVING & CLOSET                                           CNEA   0030003924900000   RACK SHOE 7X25X18IN NATL                                                                                                                                                                                                                                                                                                                                                                                                                                                                                                                                                                                                                                                                                                                                                                                                                                                                                                                                                                                                                                                                                                                               
Y0000001        008G4PRACK SHOE 8X25X16IN WHT       EA   00000225900000128200000119800000119800000119825340        00178676023-588         EA   M0000001  0YY00117000000004000388610350220000400000196400000196425325340190FWHITMOR                HARDWARE                                                    SHELVING & CLOSET                                           CNEA   0030003924900000   RACK SHOE 8X25X16IN WHT                                                                                                                                                                                                                                                                                                                                                                                                                                                                                                                                                                                                                                                                                                                                                                                                                                                                                                                                                                                                                                                                                                                                
Y0000001        008G4PRACK HANG SHOE 36 PR WHT      EA   00000537500000304800000284900000284900000284925340        00178676486-1746-WHT    EA   M0000001  0YY00117180000004000388610503840000400000467000000467025325340190FWHITMOR                HARDWARE                                                    SHELVING & CLOSET                                           CNEA   0030003924900000   RACK HANG SHOE 36 PR WHT                                                                                                                                                                                                                                                                                                                                                                                                                                                                                                                                                                                                                                                                                                                                                                                                                                                                                                                                                                                                                                                                                                                               
Y0000001        008G4PRACK SHOE 9X22X16IN WHT       EA   00000157500000089100000083300000083300000083325340        00178676023-1305        EA   M0000001  0YY00117260000004000388610389620000400000136600000136625325340190FWHITMOR                HARDWARE                                                    SHELVING & CLOSET                                           CNEA   0030003924900000   RACK SHOE 9X22X16IN WHT                                                                                                                                                                                                                                                                                                                                                                                                                                                                                                                                                                                                                                                                                                                                                                                                                                                                                                                                                                                                                                                                                                                                
Y0000001        008G4PCLTH ORGNZR 7X12-3/8X7IN WHT  EA   00000087900000049900000046600000046600000046625340        00178676023-3812        EA   M0000001  0YY00117340000006000388610905880000600000076400000076425325340190FWHITMOR                HARDWARE                                                    SHELVING & CLOSET                                           CNEA   0030003924900000   CLTH ORGNZR 7X12-3/8X7IN WHT                                                                                                                                                                                                                                                                                                                                                                                                                                                                                                                                                                                                                                                                                                                                                                                                                                                                                                                                                                                                                                                                                                                           
Y0000001        008G4PCLTH ORGNZR 7X18X7IN WHT      EA   00000114900000065200000060900000060900000060925340        00178676023-3813        EA   M0000001  0YY00117420000006000388610905950000600000099800000099825325340190FWHITMOR                HARDWARE                                                    SHELVING & CLOSET                                           CNEA   0030003924900000   CLTH ORGNZR 7X18X7IN WHT                                                                                                                                                                                                                                                                                                                                                                                                                                                                                                                                                                                                                                                                                                                                                                                                                                                                                                                                                                                                                                                                                                                               
Y0000001        008G4PFILE SHOE HANG 11-1/2X5X52IN  EA   00000191500000108600000101500000101500000101525340        00178676436-1229-BLUE   EA   M0000001  0YY00117590000006000388610726900000600000166400000166425325340190FWHITMOR                HARDWARE                                                    SHELVING & CLOSET                                           CNEA   0030003924900000   FILE SHOE HANG 11-1/2X5X52IN                                                                                                                                                                                                                                                                                                                                                                                                                                                                                                                                                                                                                                                                                                                                                                                                                                                                                                                                                                                                                                                                                                                           
Y0000001        008G4PCLTH ORGNZR 10-3/8X8IN WHT    EA   00000152500000086600000080900000080900000080925340        00178676023-3982        EA   M0000001  0YY00117670000006000388610937630000600000132600000132625325340190FWHITMOR                HARDWARE                                                    SHELVING & CLOSET                                           CNEA   0030003924900000   CLTH ORGNZR 10-3/8X8IN WHT                                                                                                                                                                                                                                                                                                                                                                                                                                                                                                                                                                                                                                                                                                                                                                                                                                                                                                                                                                                                                                                                                                                             
Y0000001        008G4PSHLF CLST 11-1/2X25X27-7/8IN  EA   00000392500000222700000208100000208100000208125340        00178676023-211         EA   M0000001  0YY00117750000004000388610242000000400000341100000341125325340125FWHITMOR                HARDWARE                                                    SHELVING & CLOSET                                           CNEA   0030003924900000   SHLF CLST 11-1/2X25X27-7/8IN                                                                                                                                                                                                                                                                                                                                                                                                                                                                                                                                                                                                                                                                                                                                                                                                                                                                                                                                                                                                                                                                                                                           
Y0000001        008G4PHNGR CLTH 16-13/16X10-1/16IN  EA   00000114900000057700000053900000053900000053950625        00178676672-2396-5      EA   M0000001  0YY00117830000012000388610655240001200000099800000099850650625065FWHITMOR                HOUSEWARES                                                  LAUNDRY PRODUCTS                                            CNEA   0040003924900070   HNGR CLTH 16-13/16X10-1/16IN                                                                                                                                                                                                                                                                                                                                                                                                                                                                                                                                                                                                                                                                                                                                                                                                                                                                                                                                                                                                                                                                                                                           
Y0000001        008G4PBSKT SHLF RATTIQUE 6QT        EA   00000294900000167200000156300000156300000156325340        00178676500-1715-JAVA   EA   M0000001  0YY00117910000006000388610491800000600000256200000256225325340190FWHITMOR                HARDWARE                                                    SHELVING & CLOSET                                           CNEA   0030003924900000   BSKT SHLF RATTIQUE 6QT                                                                                                                                                                                                                                                                                                                                                                                                                                                                                                                                                                                                                                                                                                                                                                                                                                                                                                                                                                                                                                                                                                                                 
Y0000001        008G4PBSKT STOR RATTIQUE 16QT       PK   00000539900000306300000286300000286300000286325340        00178676500-1959-JAVA   PK   M0000001  0YY00118090000006000388610565840000600000469300000469325325340190EWHITMOR                HARDWARE                                                    SHELVING & CLOSET                                           CNPK   0030003924900099   BSKT STOR RATTIQUE 16QT                                                                                                                                                                                                                                                                                                                                                                                                                                                                                                                                                                                                                                                                                                                                                                                                                                                                                                                                                                                                                                                                                                                                
Y0000001        008G4PBSKT SHLF RATTIQUE 8QT        EA   00000225900000128200000119800000119800000119825340        00178676500-2711-JAVA   EA   M0000001  0YY00118250000006000388610723240000600000196400000196425325340190FWHITMOR                HARDWARE                                                    SHELVING & CLOSET                                           CNEA   0030003924900000   BSKT SHLF RATTIQUE 8QT                                                                                                                                                                                                                                                                                                                                                                                                                                                                                                                                                                                                                                                                                                                                                                                                                                                                                                                                                                                                                                                                                                                                 
Y0000001        008G4PBSKT SHLF RATTIQUE 8QT        EA   00000152500000086600000080900000080900000080925340        00178676500-2712-JAVA   EA   M0000001  0YY00118330000006000388610723620000600000132600000132625325340190FWHITMOR                HARDWARE                                                    SHELVING & CLOSET                                           CNEA   0030003924900000   BSKT SHLF RATTIQUE 8QT                                                                                                                                                                                                                                                                                                                                                                                                                                                                                                                                                                                                                                                                                                                                                                                                                                                                                                                                                                                                                                                                                                                                 
Y0000001        008G4PBSKT STRAP 8 QT 13X15X10IN    EA   00000243900000138400000129300000129300000129325340        00178676581-1981-JAVA   EA   M0000001  0YY00118410000006000388610571610000600000212000000212025325340190FWHITMOR                HARDWARE                                                    SHELVING & CLOSET                                           CNEA   0030003924900000   BSKT STRAP 8 QT 13X15X10IN                                                                                                                                                                                                                                                                                                                                                                                                                                                                                                                                                                                                                                                                                                                                                                                                                                                                                                                                                                                                                                                                                                                             
Y0000001        008G4PBSKT STRAP 8 QT 13X15X5IN     EA   00000203500000115300000107800000107800000107825340        00178676581-2711-JAVA   EA   M0000001  0YY00118580000006000388610717610000600000176700000176725325340190FWHITMOR                HARDWARE                                                    SHELVING & CLOSET                                           CNEA   0030003924900000   BSKT STRAP 8 QT 13X15X5IN                                                                                                                                                                                                                                                                                                                                                                                                                                                                                                                                                                                                                                                                                                                                                                                                                                                                                                                                                                                                                                                                                                                              
Y0000001        008G4PBSKT STRAP 8 QT 6-1/2X4-9/16INEA   00000152500000086600000080900000080900000080925340        00178676581-2712-JAVA   EA   M0000001  0YY00118660000006000388610721640000600000132600000132625325340190FWHITMOR                HARDWARE                                                    SHELVING & CLOSET                                           CNEA   0030003924900000   BSKT STRAP 8 QT 6-1/2X4-9/16IN                                                                                                                                                                                                                                                                                                                                                                                                                                                                                                                                                                                                                                                                                                                                                                                                                                                                                                                                                                                                                                                                                                                         
Y0000001        008G4PFILE 11-1/2X12X42IN BLU       EA   00000191500000108600000101500000101500000101525340        00178676436-1234-BLUE   EA   M0000001  0YY00118740000006000388610727060000600000166400000166425325340190FWHITMOR                HARDWARE                                                    SHELVING & CLOSET                                           CNEA   0030003924900000   FILE 11-1/2X12X42IN BLU                                                                                                                                                                                                                                                                                                                                                                                                                                                                                                                                                                                                                                                                                                                                                                                                                                                                                                                                                                                                                                                                                                                                
Y0000001        008G4PLNDRY 20X31-3/4X72IN          EA   00001050500000596100000557100000557100000557150625        00178676705-2815        EA   M0000001  0YY00118820000002000388610783190000200000913300000913350650625040FWHITMOR                HOUSEWARES                                                  LAUNDRY PRODUCTS                                            CNEA   0030003924900000   LNDRY 20X31-3/4X72IN                                                                                                                                                                                                                                                                                                                                                                                                                                                                                                                                                                                                                                                                                                                                                                                                                                                                                                                                                                                                                                                                                                                                   
Y0000001        008G4PHMPR LNDRY 15-3/8X30X28-3/8IN EA   00000384500000218100000203800000203800000203850625        00178676208-2417        EA   M0000001  0YY00119160000004000388610659750000400000334100000334150650625040EWHITMOR                HOUSEWARES                                                  LAUNDRY PRODUCTS                                            CNEA   0030003924900000   HMPR LNDRY 15-3/8X30X28-3/8IN                                                                                                                                                                                                                                                                                                                                                                                                                                                                                                                                                                                                                                                                                                                                                                                                                                                                                                                                                                                                                                                                                                                          
Y0000001        008G4PBSKT STRAP 15X15X20IN         EA   00000417500000236900000221400000221400000221425340        00178676581-2011-JAVA   EA   M0000001  0YY00119240000004000388610572220000400000363000000363025325340190FWHITMOR                HARDWARE                                                    SHELVING & CLOSET                                           CNEA   0030003924900000   BSKT STRAP 15X15X20IN                                                                                                                                                                                                                                                                                                                                                                                                                                                                                                                                                                                                                                                                                                                                                                                                                                                                                                                                                                                                                                                                                                                                  
Y0000001        008G4PBSKT STOR 15X15X20IN          EA   00000486500000275800000257800000257800000257850625        00178676581-3905-ESPR   EA   M0000001  0YY00119400000004000388610962070000400000422600000422650650625040FWHITMOR                HOUSEWARES                                                  LAUNDRY PRODUCTS                                            CNEA   0030003924900000   BSKT STOR 15X15X20IN                                                                                                                                                                                                                                                                                                                                                                                                                                                                                                                                                                                                                                                                                                                                                                                                                                                                                                                                                                                                                                                                                                                                   
Y0000001        008G4PBG LNDRY 0.1X24X36IN GRY      EA   00000072900000036500000034100000034100000034150625        00178676509-111-BRYBL   EA   M0000001  0YY00119570000012000388610882400001200000063100000063150650625100FWHITMOR                HOUSEWARES                                                  LAUNDRY PRODUCTS                                            CNEA   0040003924900000   BG LNDRY 0.1X24X36IN GRY                                                                                                                                                                                                                                                                                                                                                                                                                                                                                                                                                                                                                                                                                                                                                                                                                                                                                                                                                                                                                                                                                                                               
Y0000001        008G4PBG WSH MSH SM MED&L WHT       EA   00000114900000057700000053900000053900000053950625        00178676505-4362        EA   M0000001  0YY00119650000012000388611023110001200000099800000099850650625100FWHITMOR                HOUSEWARES                                                  LAUNDRY PRODUCTS                                            CNEA   0040006307909990   BG WSH MSH SM MED&L WHT                                                                                                                                                                                                                                                                                                                                                                                                                                                                                                                                                                                                                                                                                                                                                                                                                                                                                                                                                                                                                                                                                                                                
Y0000001        008G4PCOVER BRD IRONING FULL SZ CTN EA   00000109900000062400000058300000058300000058350625        00178676149-100         EA   M0000001  0YY00119730000012000388611007130001200000095600000095650650625090CWHITMOR                HOUSEWARES                                                  LAUNDRY PRODUCTS                                            CNEA   0030003924900000   COVER BRD IRONING FULL SZ CTN                                                                                                                                                                                                                                                                                                                                                                                                                                                                                                                                                                                                                                                                                                                                                                                                                                                                                                                                                                                                                                                                                                                          
Y0000001        008G4PBOARD IRONING WHT 28-35IN HIGHEA   00000586500000376300000351700000351700000351750625        00178676152-4701        EA   M0000001  0YY00119810000004000388611051520000400000509700000509750650625080BWHITMOR                HOUSEWARES                                                  LAUNDRY PRODUCTS                                            CNEA   0020009403200099   BOARD IRONING WHT 28-35IN HIGH                                                                                                                                                                                                                                                                                                                                                                                                                                                                                                                                                                                                                                                                                                                                                                                                                                                                                                                                                                                                                                                                                                                         
Y0000001        008G4PBRD IRONING TBLTP BLU         EA   00000284500000161400000150800000150800000150850625        00178676152-5290        EA   M0000001  0YY00119990000006000388616302340000600000247200000247250650625080CWHITMOR                HOUSEWARES                                                  LAUNDRY PRODUCTS                                            CNEA   0030009403200099   BRD IRONING TBLTP BLU                                                                                                                                                                                                                                                                                                                                                                                                                                                                                                                                                                                                                                                                                                                                                                                                                                                                                                                                                                                                                                                                                                                                  
Y0000001        008G4PFILE SHOE HANG 18X64IN BLU    EA   00000191500000108600000101500000101500000101525340        00178676436-1253-BLUE   EA   M0000001  0YY00120050000006000388610727130000600000166400000166425325340190FWHITMOR                HARDWARE                                                    SHELVING & CLOSET                                           CNEA   0030003924900000   FILE SHOE HANG 18X64IN BLU                                                                                                                                                                                                                                                                                                                                                                                                                                                                                                                                                                                                                                                                                                                                                                                                                                                                                                                                                                                                                                                                                                                             
Y0000001        008G4PBOTTLE SPRAY 16OZ CLEAR       EA   00000042500000022000000020600000020600000020655405        00178676171-4263        EA   M0000001  0YY00120130000012000388610996420001200000042000000042055455405040FWHITMOR                LAWN & GARDEN                                               SPRAYERS                                                    CNEA   0050008424200000   BOTTLE SPRAY 16OZ CLEAR                                                                                                                                                                                                                                                                                                                                                                                                                                                                                                                                                                                                                                                                                                                                                                                                                                                                                                                                                                                                                                                                                                                                
Y0000001        008G4PBG LNDRY 0.25X36.38X24IN      EA   00000055500000028900000027000000027000000027050625        00178676154-111         EA   M0000001  0YY00120470000012000388610307130001200000055100000055150650625100FWHITMOR                HOUSEWARES                                                  LAUNDRY PRODUCTS                                            CNEA   0050003924900000   BG LNDRY 0.25X36.38X24IN                                                                                                                                                                                                                                                                                                                                                                                                                                                                                                                                                                                                                                                                                                                                                                                                                                                                                                                                                                                                                                                                                                                               
Y0000001        008G4PBG WSH BRA WHT 2CMPT          EA   00000114900000057700000053900000053900000053950625        00178676505-4406        EA   M0000001  0YY00120540000006000388611009800000600000099800000099850650625100FWHITMOR                HOUSEWARES                                                  LAUNDRY PRODUCTS                                            CNEA   0040006307909990   BG WSH BRA WHT 2CMPT                                                                                                                                                                                                                                                                                                                                                                                                                                                                                                                                                                                                                                                                                                                                                                                                                                                                                                                                                                                                                                                                                                                                   
Y0000001        008G4PBG WSH HOISERY WHT 4CMPT      EA   00000055500000028900000027000000027000000027050625        00178676154-988         EA   M0000001  0YY00120620000012000388610296250001200000055100000055150650625040FWHITMOR                HOUSEWARES                                                  LAUNDRY PRODUCTS                                            CNEA   0050003924900000   BG WSH HOISERY WHT 4CMPT                                                                                                                                                                                                                                                                                                                                                                                                                                                                                                                                                                                                                                                                                                                                                                                                                                                                                                                                                                                                                                                                                                                               
Y0000001        008G4PHMPER LAUNDRY 15IN COLLAPSIBLEEA   00000232500000116700000109100000109100000109150625        00178676233-1170-WHT    EA   M0000001  0YY00120700000006000388610719450000600000202000000202050650625040FWHITMOR                HOUSEWARES                                                  LAUNDRY PRODUCTS                                            CNEA   0040003924900000   HMPER LAUNDRY 15IN COLLAPSIBLE                                                                                                                                                                                                                                                                                                                                                                                                                                                                                                                                                                                                                                                                                                                                                                                                                                                                                                                                                                                                                                                                                                                         
